{
  "_format": "hh-sol-artifact-1",
  "contractName": "TaskContract",
  "sourceName": "contracts/TaskContract.sol",
  "abi": [
    {
      "anonymous": false,
      "inputs": [
        {
          "indexed": false,
          "internalType": "address",
          "name": "recipient",
          "type": "address"
        },
        {
          "indexed": false,
          "internalType": "uint256",
          "name": "taskId",
          "type": "uint256"
        }
      ],
      "name": "AddTask",
      "type": "event"
    },
    {
      "anonymous": false,
      "inputs": [
        {
          "indexed": false,
          "internalType": "uint256",
          "name": "taskId",
          "type": "uint256"
        },
        {
          "indexed": false,
          "internalType": "bool",
          "name": "done",
          "type": "bool"
        }
      ],
      "name": "DeleteTask",
      "type": "event"
    },
    {
      "inputs": [
        {
          "internalType": "string",
          "name": "title",
          "type": "string"
        },
        {
          "internalType": "bool",
          "name": "done",
          "type": "bool"
        }
      ],
      "name": "addTask",
      "outputs": [],
      "stateMutability": "nonpayable",
      "type": "function"
    },
    {
      "inputs": [
        {
          "internalType": "uint256",
          "name": "taskId",
          "type": "uint256"
        },
        {
          "internalType": "bool",
          "name": "done",
          "type": "bool"
        }
      ],
      "name": "deleteTask",
      "outputs": [],
      "stateMutability": "nonpayable",
      "type": "function"
    },
    {
      "inputs": [],
      "name": "getMyTasks",
      "outputs": [
        {
          "components": [
            {
              "internalType": "uint256",
              "name": "id",
              "type": "uint256"
            },
            {
              "internalType": "address",
              "name": "username",
              "type": "address"
            },
            {
              "internalType": "string",
              "name": "title",
              "type": "string"
            },
            {
              "internalType": "bool",
              "name": "done",
              "type": "bool"
            }
          ],
          "internalType": "struct TaskContract.Task[]",
          "name": "",
          "type": "tuple[]"
        }
      ],
      "stateMutability": "view",
      "type": "function"
    }
  ],
  "bytecode": "0x608060405234801561001057600080fd5b50610e60806100206000396000f3fe608060405234801561001057600080fd5b50600436106100415760003560e01c806320df4581146100465780636e13f81814610062578063aaba290714610080575b600080fd5b610060600480360381019061005b91906108fa565b61009c565b005b61006a610229565b6040516100779190610b32565b60405180910390f35b61009a6004803603810190610095919061094e565b61067d565b005b600080805490509050600060405180608001604052808381526020013373ffffffffffffffffffffffffffffffffffffffff16815260200185815260200184151581525090806001815401808255809150506001900390600052602060002090600402016000909190919091506000820151816000015560208201518160010160006101000a81548173ffffffffffffffffffffffffffffffffffffffff021916908373ffffffffffffffffffffffffffffffffffffffff1602179055506040820151816002019080519060200190610176929190610785565b5060608201518160030160006101000a81548160ff0219169083151502179055505050336001600083815260200190815260200160002060006101000a81548173ffffffffffffffffffffffffffffffffffffffff021916908373ffffffffffffffffffffffffffffffffffffffff1602179055507f1f54e1ba1832d428fbd7e7792beaf62b1fc5a382c207ffd614209c1413e94fda338260405161021c929190610b09565b60405180910390a1505050565b60606000808054905067ffffffffffffffff811115610271577f4e487b7100000000000000000000000000000000000000000000000000000000600052604160045260246000fd5b6040519080825280602002602001820160405280156102aa57816020015b61029761080b565b81526020019060019003908161028f5790505b5090506000805b600080549050811015610551573373ffffffffffffffffffffffffffffffffffffffff166001600083815260200190815260200160002060009054906101000a900473ffffffffffffffffffffffffffffffffffffffff1673ffffffffffffffffffffffffffffffffffffffff1614801561038857506000151560008281548110610365577f4e487b7100000000000000000000000000000000000000000000000000000000600052603260045260246000fd5b906000526020600020906004020160030160009054906101000a900460ff161515145b1561053e57600081815481106103c7577f4e487b7100000000000000000000000000000000000000000000000000000000600052603260045260246000fd5b9060005260206000209060040201604051806080016040529081600082015481526020016001820160009054906101000a900473ffffffffffffffffffffffffffffffffffffffff1673ffffffffffffffffffffffffffffffffffffffff1673ffffffffffffffffffffffffffffffffffffffff16815260200160028201805461045090610cb2565b80601f016020809104026020016040519081016040528092919081815260200182805461047c90610cb2565b80156104c95780601f1061049e576101008083540402835291602001916104c9565b820191906000526020600020905b8154815290600101906020018083116104ac57829003601f168201915b505050505081526020016003820160009054906101000a900460ff1615151515815250508383806104f990610d15565b945081518110610532577f4e487b7100000000000000000000000000000000000000000000000000000000600052603260045260246000fd5b60200260200101819052505b808061054990610d15565b9150506102b1565b5060008167ffffffffffffffff811115610594577f4e487b7100000000000000000000000000000000000000000000000000000000600052604160045260246000fd5b6040519080825280602002602001820160405280156105cd57816020015b6105ba61080b565b8152602001906001900390816105b25790505b50905060005b8281101561067357838181518110610614577f4e487b7100000000000000000000000000000000000000000000000000000000600052603260045260246000fd5b6020026020010151828281518110610655577f4e487b7100000000000000000000000000000000000000000000000000000000600052603260045260246000fd5b6020026020010181905250808061066b90610d15565b9150506105d3565b5080935050505090565b3373ffffffffffffffffffffffffffffffffffffffff166001600084815260200190815260200160002060009054906101000a900473ffffffffffffffffffffffffffffffffffffffff1673ffffffffffffffffffffffffffffffffffffffff16141561078157806000838154811061071f577f4e487b7100000000000000000000000000000000000000000000000000000000600052603260045260246000fd5b906000526020600020906004020160030160006101000a81548160ff0219169083151502179055507ff88a35c3d2016c409a46570b994a17b408dbc83c14a03f521512d50b85386d068282604051610778929190610b54565b60405180910390a15b5050565b82805461079190610cb2565b90600052602060002090601f0160209004810192826107b357600085556107fa565b82601f106107cc57805160ff19168380011785556107fa565b828001600101855582156107fa579182015b828111156107f95782518255916020019190600101906107de565b5b509050610807919061084b565b5090565b604051806080016040528060008152602001600073ffffffffffffffffffffffffffffffffffffffff168152602001606081526020016000151581525090565b5b8082111561086457600081600090555060010161084c565b5090565b600061087b61087684610ba2565b610b7d565b90508281526020810184848401111561089357600080fd5b61089e848285610c70565b509392505050565b6000813590506108b581610dfc565b92915050565b600082601f8301126108cc57600080fd5b81356108dc848260208601610868565b91505092915050565b6000813590506108f481610e13565b92915050565b6000806040838503121561090d57600080fd5b600083013567ffffffffffffffff81111561092757600080fd5b610933858286016108bb565b9250506020610944858286016108a6565b9150509250929050565b6000806040838503121561096157600080fd5b600061096f858286016108e5565b9250506020610980858286016108a6565b9150509250929050565b60006109968383610a88565b905092915050565b6109a781610c28565b82525050565b6109b681610c28565b82525050565b60006109c782610be3565b6109d18185610c06565b9350836020820285016109e385610bd3565b8060005b85811015610a1f5784840389528151610a00858261098a565b9450610a0b83610bf9565b925060208a019950506001810190506109e7565b50829750879550505050505092915050565b610a3a81610c3a565b82525050565b610a4981610c3a565b82525050565b6000610a5a82610bee565b610a648185610c17565b9350610a74818560208601610c7f565b610a7d81610deb565b840191505092915050565b6000608083016000830151610aa06000860182610aeb565b506020830151610ab3602086018261099e565b5060408301518482036040860152610acb8282610a4f565b9150506060830151610ae06060860182610a31565b508091505092915050565b610af481610c66565b82525050565b610b0381610c66565b82525050565b6000604082019050610b1e60008301856109ad565b610b2b6020830184610afa565b9392505050565b60006020820190508181036000830152610b4c81846109bc565b905092915050565b6000604082019050610b696000830185610afa565b610b766020830184610a40565b9392505050565b6000610b87610b98565b9050610b938282610ce4565b919050565b6000604051905090565b600067ffffffffffffffff821115610bbd57610bbc610dbc565b5b610bc682610deb565b9050602081019050919050565b6000819050602082019050919050565b600081519050919050565b600081519050919050565b6000602082019050919050565b600082825260208201905092915050565b600082825260208201905092915050565b6000610c3382610c46565b9050919050565b60008115159050919050565b600073ffffffffffffffffffffffffffffffffffffffff82169050919050565b6000819050919050565b82818337600083830152505050565b60005b83811015610c9d578082015181840152602081019050610c82565b83811115610cac576000848401525b50505050565b60006002820490506001821680610cca57607f821691505b60208210811415610cde57610cdd610d8d565b5b50919050565b610ced82610deb565b810181811067ffffffffffffffff82111715610d0c57610d0b610dbc565b5b80604052505050565b6000610d2082610c66565b91507fffffffffffffffffffffffffffffffffffffffffffffffffffffffffffffffff821415610d5357610d52610d5e565b5b600182019050919050565b7f4e487b7100000000000000000000000000000000000000000000000000000000600052601160045260246000fd5b7f4e487b7100000000000000000000000000000000000000000000000000000000600052602260045260246000fd5b7f4e487b7100000000000000000000000000000000000000000000000000000000600052604160045260246000fd5b6000601f19601f8301169050919050565b610e0581610c3a565b8114610e1057600080fd5b50565b610e1c81610c66565b8114610e2757600080fd5b5056fea2646970667358221220e53f56585b771f1dc7298662a077d3e3c5b56e81e6819697591ae7f71cfeba8064736f6c63430008040033",
  "linkReferences": {},
  "deployedLinkReferences": {}
}